{
  "contractName": "UndercoverSwap",
  "abi": [
    {
      "inputs": [
        {
          "internalType": "contract Token",
          "name": "_token",
          "type": "address"
        }
      ],
      "payable": false,
      "stateMutability": "nonpayable",
      "type": "constructor"
    },
    {
      "constant": true,
      "inputs": [],
      "name": "name",
      "outputs": [
        {
          "internalType": "string",
          "name": "",
          "type": "string"
        }
      ],
      "payable": false,
      "stateMutability": "view",
      "type": "function"
    },
    {
      "constant": true,
      "inputs": [],
      "name": "rate",
      "outputs": [
        {
          "internalType": "uint256",
          "name": "",
          "type": "uint256"
        }
      ],
      "payable": false,
      "stateMutability": "view",
      "type": "function"
    },
    {
      "constant": true,
      "inputs": [],
      "name": "token",
      "outputs": [
        {
          "internalType": "contract Token",
          "name": "",
          "type": "address"
        }
      ],
      "payable": false,
      "stateMutability": "view",
      "type": "function"
    },
    {
      "constant": false,
      "inputs": [],
      "name": "buyTokens",
      "outputs": [],
      "payable": true,
      "stateMutability": "payable",
      "type": "function"
    }
  ],
  "bytecode": "0x60806040526040518060400160405280601f81526020017f556e646572636f7665725377617020496e7374616e742045786368616e6765008152506000908051906020019061004f9291906100dc565b50600a60025534801561006157600080fd5b506040516104f43803806104f48339818101604052602081101561008457600080fd5b810190808051906020019092919050505080600160006101000a81548173ffffffffffffffffffffffffffffffffffffffff021916908373ffffffffffffffffffffffffffffffffffffffff16021790555050610181565b828054600181600116156101000203166002900490600052602060002090601f016020900481019282601f1061011d57805160ff191683800117855561014b565b8280016001018555821561014b579182015b8281111561014a57825182559160200191906001019061012f565b5b509050610158919061015c565b5090565b61017e91905b8082111561017a576000816000905550600101610162565b5090565b90565b610364806101906000396000f3fe60806040526004361061003f5760003560e01c806306fdde03146100445780632c4e722e146100d4578063d0febe4c146100ff578063fc0c546a14610109575b600080fd5b34801561005057600080fd5b50610059610160565b6040518080602001828103825283818151815260200191508051906020019080838360005b8381101561009957808201518184015260208101905061007e565b50505050905090810190601f1680156100c65780820380516001836020036101000a031916815260200191505b509250505060405180910390f35b3480156100e057600080fd5b506100e96101fe565b6040518082815260200191505060405180910390f35b610107610204565b005b34801561011557600080fd5b5061011e610309565b604051808273ffffffffffffffffffffffffffffffffffffffff1673ffffffffffffffffffffffffffffffffffffffff16815260200191505060405180910390f35b60008054600181600116156101000203166002900480601f0160208091040260200160405190810160405280929190818152602001828054600181600116156101000203166002900480156101f65780601f106101cb576101008083540402835291602001916101f6565b820191906000526020600020905b8154815290600101906020018083116101d957829003601f168201915b505050505081565b60025481565b600060025434029050670de0b6b3a763fff7818161021e57fe5b049050600160009054906101000a900473ffffffffffffffffffffffffffffffffffffffff1673ffffffffffffffffffffffffffffffffffffffff1663a9059cbb33836040518363ffffffff1660e01b8152600401808373ffffffffffffffffffffffffffffffffffffffff1673ffffffffffffffffffffffffffffffffffffffff16815260200182815260200192505050602060405180830381600087803b1580156102ca57600080fd5b505af11580156102de573d6000803e3d6000fd5b505050506040513d60208110156102f457600080fd5b81019080805190602001909291905050505050565b600160009054906101000a900473ffffffffffffffffffffffffffffffffffffffff168156fea265627a7a72315820ea484a2d98985a52a2461e6e439bab0e0873d8ab22c2e308daa36abf1c38cae464736f6c63430005100032",
  "source": "pragma solidity >=0.4.21 <0.6.0;\n\nimport \"./Token.sol\";\n\ncontract UndercoverSwap {\n  string public name = \"UndercoverSwap Instant Exchange\";\n  Token public token;\n  uint public rate = 10;\n\n  constructor(Token _token) public {\n    token = _token;\n  }\n\n  function buyTokens() public payable {\n    // Amount of ether for buying tokens * Number of tokens receive for 1 eth\n    uint tokenAmount = msg.value * rate;\n    // because UCT use only 9 decimal places we have to divide our rate\n    tokenAmount = tokenAmount / (10**18-9);\n    token.transfer(msg.sender, tokenAmount);\n  }\n\n}\n",
  "sourcePath": "/home/david/Programming/blockchain_dev/projects/undercover_swap/src/contracts/UndercoverSwap.sol",
  "compiler": {
    "name": "solc",
    "version": "0.5.16+commit.9c3226ce.Emscripten.clang"
  },
  "schemaVersion": "3.0.23",
  "updatedAt": "2021-07-10T21:30:01.305Z",
  "devdoc": {
    "methods": {}
  },
  "userdoc": {
    "methods": {}
  }
}